:0400000007EF00F016
:100008005E825E92110092EF24F020EE04F01E5002
:10001800D9261F50DA22DF50296E2950D8A413D0D0
:100028005DA007D01EC0D9FF1FC0DAFFDE06000E94
:10003800DD5A20EE06F01E50D9261F50DA22470E50
:10004800DE6E000EDD6E2904D8B45DA058D020EE17
:1000580008F01E50D9261F50DA22DE04DE10D8A47C
:1000680012D020EE06F01E50D9261F50DA22080EB4
:10007800DE6E000EDD6E1EC0D9FF1FC0DAFFDE2A5D
:10008800000EDD2211D01EC0D9FF1FC0DAFFDE0628
:10009800000EDD5A20EE06F01E50D9261F50DA2237
:1000A800480EDE6E000EDD6E20EE0AF01E50D926D8
:1000B8001F50DA22DE2A000EDD2220EE0AF01E5042
:1000C800D9261F50DA22010EDBBE19D0010EDB50F3
:1000D80004E1110EDE5CD8A012D020EE08F01E500C
:1000E800D9261F50DA22010EDE1A000EDD1A20EE84
:1000F8000AF01E50D9261F50DA22DE6ADD6A020E87
:100108002918D8A487D020EE06F01E50D9261F50F3
:10011800DA220D0EDE6E000EDD6E20EE0AF01E50A5
:10012800D9261F50DA22DE2A000EDD2220EE0AF040
:100138001E50D9261F50DA22010EDBBE07D0010E51
:10014800DB500FE13D0EDE5CD8B00BD020EE06F0A0
:100158001E50D9261F50DA220D0EDE6E000EDD6EFF
:1001680046D0D8905D30010B216E226A0D0E2126F3
:10017800000E222220EE06F01E50D9261F50DA2249
:1001880021C0DEFF22C0DDFF20EE0AF01E50D92676
:100198001F50DA22010EDBBE07D0010EDB500EE144
:1001A800510EDE5CD8B00AD020EE02F01E50D926DF
:1001B8001F50DA22DE06000EDD5A19D020EE0AF0B2
:1001C8001E50D9261F50DA22010EDBBE10D0010EB8
:1001D800DB5004E1650EDE5CD8A009D020EE02F009
:1001E8001E50D9261F50DA22DE2A000EDD2220EE0C
:1001F8000AF01E50D9261F50DA22780EDE18DE10BB
:10020800D8A408D020EE0AF01E50D9261F50DA22B2
:10021800DE6ADD6A030E2918D8A449D020EE0AF058
:100228001E50D9261F50DA22DE2A000EDD2220EECB
:100238000AF01E50D9261F50DA22010EDBBE07D065
:10024800010EDB500EE11F0EDE5CD8B00AD020EEA6
:1002580002F01E50D9261F50DA22DE06000EDD5AA3
:1002680009D020EE02F01E50D9261F50DA22DE2ACD
:10027800000EDD2220EE06F01E50D9261F50DA228D
:10028800470EDE6E000EDD6E20EE0AF01E50D926F7
:100298001F50DA223C0EDE18DE10D8A408D020EE5B
:1002A8000AF01E50D9261F50DA22DE6ADD6A040ED3
:1002B8002918D8A417D05D38E8461F0BD8A408D051
:1002C80020EE06F01E50D9261F50DA220F0E07D056
:1002D80020EE06F01E50D9261F50DA224F0EDE6E91
:1002E800000EDD6E050E2918D8A417D05D38E84633
:1002F8001F0BD8A408D020EE06F01E50D9261F5098
:10030800DA22100E07D020EE06F01E50D9261F5014
:10031800DA22500EDE6E000EDD6E060E2918D8A405
:100328008BD020EE0CF01E50D9261F50DA22DE505A
:10033800DE10D8A422D020EE0AF01E50D9261F5075
:10034800DA22010EDBBE07D0010EDB5016E1080EE3
:10035800DE5CD8B012D020EE02F01E50D9261F5015
:10036800DA22DE2A000EDD2220EE0AF01E50D926FF
:100378001F50DA22DE2A000EDD225D38E8461F0B08
:10038800266E2650D8A408D020EE06F01E50D92696
:100398001F50DA22130E0AD02604D8A40AD020EE61
:1003A80006F01E50D9261F50DA22140EDE6E000EFB
:1003B800DD6E20EE08F01E50D9261F50DA22DE2A04
:1003C800000EDD2220EE08F01E50D9261F50DA223A
:1003D800010EDBBE07D0010EDB500CE1150EDE5C12
:1003E800D8B008D01EC0D9FF1FC0DAFFDE06000E45
:1003F800DD5A07D01EC0D9FF1FC0DAFFDE2A000E63
:10040800DD2220EE08F01E50D9261F50DA22280ED1
:10041800DE18DE10D8A408D020EE08F01E50D92629
:100428001F50DA22DE6ADD6A20EE0CF01E50D92653
:100438001F50DA22DE6ADD6A070E2918D8A48FD089
:1004480020EE0CF01E50D9261F50DA22DECF21F004
:10045800DDCF22F0D89021362236D89021362236A8
:10046800D89021362236D890213622369F0E212464
:10047800D96E010E2220DA6E010EDE6E000EDD6EE0
:100488005D40E8423F0B286E2850D8A408D020EEE3
:1004980006F01E50D9261F50DA22110E22D0280449
:1004A800D8A408D020EE06F01E50D9261F50DA2214
:1004B800510E17D0020E2818D8A408D020EE06F046
:1004C8001E50D9261F50DA22520E0BD0030E2818C0
:1004D800D8A40AD020EE06F01E50D9261F50DA22E2
:1004E800120EDE6E000EDD6E20EE0AF01E50D926CA
:1004F8001F50DA22DE2A000EDD2220EE0AF01E50FE
:10050800D9261F50DA22010EDBBE07D0010EDB50C0
:100518000CE1150EDE5CD8B008D01EC0D9FF1FC094
:10052800DAFFDE06000EDD5A07D01EC0D9FF1FC055
:10053800DAFFDE2A000EDD2220EE0AF01E50D92650
:100548001F50DA22280EDE18DE10D8A408D020EEBC
:100558000AF01E50D9261F50DA22DE6ADD6A080E1C
:100568002918D8A463D020EE06F01E50D9261F50B3
:10057800DA22470EDE6E000EDD6E20EE0AF01E5007
:10058800D9261F50DA22DE50DE10D8A42ED020EE55
:1005980002F01E50D9261F50DA22DE2A000EDD2274
:1005A80020EE02F01E50D9261F50DA2272C00FF03A
:1005B80073C010F0000E126E0A0E116E50EC24F08B
:1005C800DE500F5C1050800A236EDE50800A2358DC
:1005D800D8B02CD020EE0AF01E50D9261F50DA22AF
:1005E800010EDE6E000EDD6E21D020EE0AF01E50E8
:1005F800D9261F50DA22010EDBBE07D0010EDB50D0
:100608000EE1140EDE5CD8B00AD020EE0AF01E50BF
:10061800D9261F50DA22DE2A000EDD2207D01EC09E
:10062800D9FF1FC0DAFFDE06000EDD5A090E2918B1
:10063800D8A42DD020EE06F01E50D9261F50DA225D
:10064800110EDE6E000EDD6E20EE08F01E50D9266B
:100658001F50DA22DE2A000EDD2220EE08F01E509E
:10066800D9261F50DA22010EDBBE11D0010EDB5055
:1006780004E1100EDE5CD8A00AD020EE02F01E5075
:10068800D9261F50DA22020EDE26000EDD220A0EBF
:100698002918D8A411D020EE06F01E50D9261F50D4
:1006A800DA22190EDE6E000EDD6E1EC0D9FF1FC0E5
:1006B800DAFFDE06000EDD5A0B0E2918D8A449D041
:1006C80020EE0AF01E50D9261F50DA22DE2A000E2C
:1006D800DD2220EE0AF01E50D9261F50DA22010E24
:1006E800DBBE07D0010EDB500EE1100EDE5CD8B089
:1006F8000AD020EE02F01E50D9261F50DA22DE065C
:10070800000EDD5A09D020EE02F01E50D9261F50E7
:10071800DA22DE2A000EDD2220EE06F01E50D9264F
:100728001F50DA22470EDE6E000EDD6E20EE0AF054
:100738001E50D9261F50DA221E0EDE18DE10D8A44D
:1007480008D020EE0AF01E50D9261F50DA22DE6AA1
:10075800DD6A0C0E2918D8A412D020EE06F01E501F
:10076800D9261F50DA221A0EDE6E000EDD6E1EC06C
:10077800D9FF1FC0DAFFFE0EDE26FF0EDD220D0EAA
:100788002918D8A450D020EE06F01E50D9261F50A4
:10079800DA221B0EDE6E000EDD6E5DA044D020EE68
:1007A80008F01E50D9261F50DA22DE04DE10D8A425
:1007B80008D01EC0D9FF1FC0DAFFDE2A000EDD22D6
:1007C80007D01EC0D9FF1FC0DAFFDE06000EDD5AB3
:1007D80020EE0AF01E50D9261F50DA22DE2A000E1B
:1007E800DD2220EE0AF01E50D9261F50DA22010E13
:1007F800DBBE19D0010EDB5004E1110EDE5CD8A07F
:1008080012D020EE08F01E50D9261F50DA22010E11
:10081800DE1A000EDD1A20EE0AF01E50D9261F50EF
:10082800DA22DE6ADD6A0E0E2918D8A454D020EE2A
:1008380006F01E50D9261F50DA221B0EDE6E000E5F
:10084800DD6E5DA048D020EE08F01E50D9261F505E
:10085800DA22DE04DE10D8A40AD020EE02F01E5000
:10086800D9261F50DA22DE2A000EDD2209D020EE1A
:1008780002F01E50D9261F50DA22DE06000EDD5A7D
:1008880020EE0AF01E50D9261F50DA22DE2A000E6A
:10089800DD2220EE0AF01E50D9261F50DA22010E62
:1008A800DBBE19D0010EDB5004E1110EDE5CD8A0CE
:1008B80012D020EE08F01E50D9261F50DA22010E61
:1008C800DE1A000EDD1A20EE0AF01E50D9261F503F
:1008D800DA22DE6ADD6A0F0E2918D8A43CD020EE91
:1008E80006F01E50D9261F50DA221D0EDE6E000EAD
:1008F800DD6E20EE08F01E50D9261F50DA22DE2ABF
:10090800000EDD2220EE08F01E50D9261F50DA22F4
:10091800010EDBBE20D0010EDB5004E12D0EDE5CA3
:10092800D8A019D020EE02F01E50D9261F50DA2286
:10093800DF50176E100E186E1EC0D9FF1FC0DAFFE9
:10094800DF5087EC1EF020EE08F01E50D9261F500D
:10095800DA22DE6ADD6A100E2918D8A412D020EE39
:1009680006F01E50D9261F50DA22200EDE6E000E29
:10097800DD6E1EC0D9FF1FC0DAFFFE0EDE26FF0E99
:10098800DD22110E2918D8A4C6D020EE0AF01E5078
:10099800D9261F50DA22DECF21F0DDCF22F0060E55
:1009A800D89021362236E82EFBD71F0E2112000ED2
:1009B800221220EE06F01E50D9261F50DA2221C03E
:1009C800DEFF22C0DDFF5DA0A6D020EE08F01E509D
:1009D800D9261F50DA22DE2A000EDD2220EE0AF088
:1009E8001E50D9261F50DA22DE50DE10D8A408D0B7
:1009F8001EC0D9FF1FC0DAFFDE06000EDD5A07D081
:100A08001EC0D9FF1FC0DAFFDE2A000EDD2220EE4D
:100A180008F01E50D9261F50DA22010EDBBE07D07F
:100A2800010EDB500EE1030EDE5CD8B00AD020EEDA
:100A380002F01E50D9261F50DA22DE06000EDD5ABB
:100A48006AD020EE08F01E50D9261F50DA22010E77
:100A5800DBBE07D0010EDB500EE1150EDE5CD8B010
:100A68000AD020EE02F01E50D9261F50DA22DE2AC4
:100A7800000EDD2250D020EE08F01E50D9261F505F
:100A8800DA22010EDBBE47D0010EDB5004E1190E5D
:100A9800DE5CD8A040D020EE08F01E50D9261F50AA
:100AA800DA22010EDBBEC3D7010EDB5004E12B0EA8
:100AB800DE5CD8A0BCD720EE08F01E50D9261F5007
:100AC800DA22010EDBBECDD7010EDB5004E12D0E7C
:100AD800DE5CD8A0C6D720EE08F01E50D9261F50DD
:100AE800DA22DE6ADD6A20EE0AF01E50D9261F508F
:100AF800DA22DECF21F0DDCF22F0010E211A000E1E
:100B0800221A20EE0AF01E50D9261F50DA2221C0E0
:100B1800DEFF22C0DDFF120E2918D8A478D020EEFF
:100B280006F01E50D9261F50DA221F0EDE6E000E68
:100B3800DD6E5DA06CD020EE08F01E50D9261F5047
:100B4800DA22DE2A000EDD221EC0D9FF1FC0DAFF1E
:100B5800DE06000EDD5A20EE08F01E50D9261F5082
:100B6800DA22010EDBBE07D0010EDB500EE10F0EBC
:100B7800DE5CD8B00AD020EE02F01E50D9261F50F5
:100B8800DA22DE06000EDD5A42D020EE08F01E50B2
:100B9800D9261F50DA22010EDBBE21D0010EDB5010
:100BA80004E1140EDE5CD8A01AD020EE08F01E5026
:100BB800D9261F50DA22010EDBBE07D0010EDB500A
:100BC8000EE1230EDE5CD8B00AD020EE02F01E50F3
:100BD800D9261F50DA22DE2A000EDD2218D020EE98
:100BE80008F01E50D9261F50DA22010EDBBE0FD0A6
:100BF800010EDB5004E1280EDE5CD8A008D020EE00
:100C080008F01E50D9261F50DA22DE6ADD6A130E5C
:100C18002918D8A466D020EE06F01E50D9261F50F9
:100C2800DA221C0EDE6E000EDD6E030E016E5D50C4
:100C38002FEC28F00009D8A454D020EE02F01E5062
:100C4800D9261F50DA2272C00FF073C010F0000EC0
:100C5800126E0A0E116E50EC24F0DE500F5C10502C
:100C6800800A236EDE50800A2358D8B00AD020EEBE
:100C780002F01E50D9261F50DA22DE06000EDD5A79
:100C880009D020EE02F01E50D9261F50DA22DE2AA3
:100C9800000EDD221EC0D9FF1FC0DAFF74C00FF09E
:100CA80075C010F0000E126E0A0E116E50EC24F092
:100CB800DE500F5C1050800A236EDE50800A2358E5
:100CC800D8B008D01EC0D9FF1FC0DAFFDE06000E5C
:100CD800DD5A07D01EC0D9FF1FC0DAFFDE2A000E7A
:100CE800DD22140E2918D8A42BD020EE06F01E50B1
:100CF800D9261F50DA22190EDE6E000EDD6E5DB0A9
:100D080007D01EC0D9FF1FC0DAFFDE06000EDD5A6D
:100D18001EC0D9FF1FC0DAFF010EDBBE07D0010ECF
:100D2800DB500EE1040EDE5CD8B00AD020EE06F0EF
:100D38001E50D9261F50DA22800EDE6E000EDD6EA0
:100D4800150E2918D8A42BD020EE06F01E50D9264F
:100D58001F50DA22190EDE6E000EDD6E5DB007D070
:100D68001EC0D9FF1FC0DAFFDE2A000EDD221EC01A
:100D7800D9FF1FC0DAFF010EDBBE11D0010EDB5018
:100D880004E13D0EDE5CD8A00AD020EE06F01E502D
:100D9800D9261F50DA22800EDE6E000EDD6E460E5A
:100DA8002918D8A43ED020EE06F01E50D9261F5090
:100DB800DA22150EDE6E000EDD6E20EE08F01E50F3
:100DC800D9261F50DA22DE2A000EDD2220EE08F096
:100DD8001E50D9261F50DA22010EDBBE22D0010E8A
:100DE800DB5004E13D0EDE5CD8A01BD0040E176E6C
:100DF800090E186E30EC27F00DC00FF00EC010F081
:100E0800020E126E490E116E50EC24F00F5087EC52
:100E18001EF020EE08F01E50D9261F50DA22DE6A96
:100E2800DD6A470E2918D8B45DB04BD120EE0CF01E
:100E38001E50D9261F50DA22010EDBBE6BD0010EE0
:100E4800DB5004E10A0EDE5CD8A064D020EE0CF082
:100E58001E50D9261F50DA22DE6ADD6A20EE0AF01B
:100E68001E50D9261F50DA22020EDE18DE10D8A432
:100E780008D020EE02F01E50D9261F50DA22180E94
:100E880007D020EE02F01E50D9261F50DA22080E95
:100E9800DE6E000EDD6E20EE08F01E50D9261F50C3
:100EA800DA22DE04DE10D8A41BD01EC0D9FF1FC072
:100EB800DAFF020EDE6E000EDD6E20EE02F01E502E
:100EC800D9261F50DA22DF50176E150E186E1EC075
:100ED800D9FF1FC0DAFFDF50080F87EC1EF01AD0C9
:100EE8001EC0D9FF1FC0DAFF380EDE6E000EDD6EA1
:100EF80020EE02F01E50D9261F50DA22DF50176E5E
:100F0800140E186E1EC0D9FF1FC0DAFFDF50F80F8D
:100F180087EC1EF020EE0CF01E50D9261F50DA2266
:100F2800DE50DE10D8A46CD0070E5D6408D020EE29
:100F380006F01E50D9261F50DA22160E07D020EED2
:100F480006F01E50D9261F50DA22170EDE6E000E4C
:100F5800DD6E20EE08F01E50D9261F50DA22DE5032
:100F6800DE10D8A420D01EC0D9FF1FC0DAFFDE06CD
:100F7800000EDD5A1EC0D9FF1FC0DAFF010EDBBE0E
:100F880007D0010EDB503CE1020EDE5CD8B038D051
:100F980020EE0CF01E50D9261F50DA22010EDE6E0C
:100FA800000EDD6E2DD01EC0D9FF1FC0DAFFDE2A6D
:100FB800000EDD2220EE06F01E50D9261F50DA2240
:100FC800DECF21F0DDCF22F0400E2112000E2212DA
:100FD80020EE06F01E50D9261F50DA2221C0DEFF6F
:100FE80022C0DDFF1EC0D9FF1FC0DAFF010EDBBE25
:100FF80007D0010EDB50CCE1390EDE5CD8B0C8D783
:1010080020EE0CF01E50D9261F50DA22DE50DE10DA
:10101800D8B41BD020EE0CF01E50D9261F50DA226F
:10102800DE2A000EDD221EC0D9FF1FC0DAFF400EE7
:10103800DE6E000EDD6E20EE02F01E50D9261F5027
:10104800DA22380EDE6E000EDD6E20EE0CF01E5039
:10105800D9261F50DA22010EDBBE33D0010EDB5039
:1010680004E10A0EDE5CD8A02CD030EC27F00DC0CD
:101078000FF00EC010F0400E126E000E116E50EC04
:1010880024F020EE08F01E50D9261F50DA220FC097
:10109800DEFF10C0DDFF30EC27F00DC00FF00EC0F2
:1010A80010F02A0E126EAB0E116E50EC24F020EEEA
:1010B8000AF01E50D9261F50DA220FC0DEFF10C0DA
:1010C800DDFF480E2918D8B45DB050D120EE0CF0E1
:1010D8001E50D9261F50DA22DECF21F0DDCF22F0B4
:1010E800D89021362236D89021362236D89021360B
:1010F8002236D890213622369F0E2124D96E010E31
:101108002220DA6E010EDBBE9ED0010EDB5004E118
:101118000A0EDE5CD8A097D020EE0CF01E50D9261F
:101128001F50DA22DECF21F0DDCF22F0D890213611
:101138002236D89021362236D89021362236D890B9
:10114800213622369B0E2124D96E010E2220DA6E1A
:1011580010EE08F01E50E1261F50E222DECFE6FF17
:10116800DDCFE5FF20EE0CF01E50D9261F50DA2205
:10117800DECF21F0DDCF22F0D89021362236D8906C
:1011880021362236D89021362236D890213622367A
:101198009D0E2124D96E010E2220DA6EDE50DE105B
:1011A800D8A408D020EE02F01E50D9261F50DA220B
:1011B800180E07D020EE02F01E50D9261F50DA2252
:1011C800280EDE6E000EDD6E20EE08F01E50D926C9
:1011D8001F50DA22DE04DE10D8A41BD01EC0D9FFAF
:1011E8001FC0DAFF380EDE6E000EDD6E20EE02F054
:1011F8001E50D9261F50DA22DF50176E140E186EB3
:101208001EC0D9FF1FC0DAFFDF50F80F87EC1EF0B1
:101218001AD01EC0D9FF1FC0DAFF020EDE6E000E04
:10122800DD6E20EE02F01E50D9261F50DA22DF5064
:10123800176E150E186E1EC0D9FF1FC0DAFFDF50DB
:10124800080F87EC1EF0070E5D6408D020EE06F04C
:101258001E50D9261F50DA22160E07D020EE06F0AF
:101268001E50D9261F50DA22170EDE6E000EDD6ED4
:1012780020EE08F01E50D9261F50DA22DE50DE106C
:10128800D8A410D01EC0D9FF1FC0DAFFDE2A000E76
:10129800DD2220EE06F01E50D9261F50DA22000E5D
:1012A800DB8C07D01EC0D9FF1FC0DAFFDE06000E98
:1012B800DD5A20EE0CF01E50D9261F50DA22DECF60
:1012C80021F0DDCF22F0D89021362236D890213671
:1012D8002236D89021362236D890213622369F0ED3
:1012E8002124D96E010E2220DA6E010EDBBE3ED01B
:1012F800010EDB5003E1DE04D8A038D020EE0CF05C
:101308001E50D9261F50DA22DECF21F0DDCF22F081
:10131800D89021362236D89021362236D8902136D8
:101328002236D890213622369F0E2124D96E010EFE
:101338002220DA6E010EDBBE07D0010EDB5016E16B
:101348000A0EDE5CD8B012D01EC0D9FF1FC0DAFF6B
:10135800400EDE6E000EDD6E20EE02F01E50D92625
:101368001F50DA22380EDE6E000EDD6E500E291880
:10137800D8A4D6D020EE0AF01E50D9261F50DA2263
:10138800DE50DE10D8A410D020EE02F01E50D92670
:101398001F50DA2210EE0AF01E50E1261F50E222FA
:1013A800DECFE6FFDDCFE5FF20EE08F01E50D926A0
:1013B8001F50DA22010EDBBE07D0010EDB501EE102
:1013C8001E0EDE5CD8B01AD01EC0D9FF1FC0DAFFCF
:1013D800DE06000EDD5A070E5D6408D020EE06F02A
:1013E8001E50D9261F50DA22160E1FD020EE06F006
:1013F8001E50D9261F50DA22170E17D020EE08F0FB
:101408001E50D9261F50DA22010EDBBE07D0010E6E
:10141800DB500FE12D0EDE5CD8B00BD020EE06F0CD
:101428001E50D9261F50DA22180EDE6E000EDD6E11
:101438006ED020EE08F01E50D9261F50DA22010E79
:10144800DBBE07D0010EDB5021E14A0EDE5CD8B0CE
:101458001DD0070E5D6408D020EE06F01E50D92678
:101468001F50DA22560E07D020EE06F01E50D9265D
:101478001F50DA22570EDE6E000EDD6E1EC0D9FF39
:101488001FC0DAFFDE2A000EDD2241D030EC27F043
:101498000DC00FF00EC010F02A0E126EAB0E116EBA
:1014A80050EC24F00F38F00B256E20EE0AF01E5099
:1014B800D9261F50DA22DECF21F0DDCF22F02550C9
:1014C800215E000E225A20EE02F01E50D9261F502F
:1014D800DA2221C0DEFF22C0DDFF20EE08F01E5018
:1014E800D9261F50DA22DE6ADD6A20EE02F01E508D
:1014F800D9261F50DA22DF50176E0A0E186E1EC04A
:10150800D9FF1FC0DAFFDF50F80F87EC1EF020EE7E
:1015180008F01E50D9261F50DA22DE2A000EDD22DE
:10152800510E2918D8A43DD020EE06F01E50D92619
:101538001F50DA22130EDE6E000EDD6E20EE0AF06A
:101548001E50D9261F50DA22DE2A000EDD2220EE98
:101558000AF01E50D9261F50DA22010EDBBE21D018
:10156800010EDB5004E13D0EDE5CD8A01AD020EE5F
:1015780002F01E50D9261F50DA22DF50176E0C0ECB
:10158800186E1EC0D9FF1FC0DAFFDF50F80F87ECB6
:101598001EF020EE0AF01E50D9261F50DA22DE6A0D
:1015A800DD6A1EC0D9FF1FC0DAFFDF50216E0001BF
:1015B8008C51215C276E2750800A900FD8A024D028
:1015C8002750800A370FD8B01FD020EE02F01E50E7
:1015D800D9261F50DA22010EDBBE16D0010EDB50D1
:1015E80003E1DE04D8A010D020EE02F01E50D92668
:1015F8001F50DA22010EDBBE1200010EDB5004E19F
:10160800390EDE5CD8A0120020EE06F01E50D92656
:101618001F50DA22800EDE6E000EDD6E20EE0EF018
:101628001E50D9261F50DA22FF0EDE6EFF0EDD6E29
:101638001200000E0F01386F000E396F000E3A6F5E
:10164800000E3B6F9268000E956E000E936E000EB2
:10165800806E000E836E000E816E000E846E000E8A
:10166800966E020E3C6F020E966E92EC28F0070EF4
:101678000C6E000E0D6E7F0E0E6E000E4CEC26F0FA
:10168800000EAFEC28F0000E0301056F000E046F8A
:10169800000E1F6F000E1E6F000E3C6F000E3B6F9A
:1016A8003CBF06D03C512AE1800E3B5DD8B026D025
:1016B8003BC306F0E10E0001B26F6F0EB36F03017A
:1016C8003B510001B22703013C510001B323030140
:1016D80004510001B227030105510001B323B2C030
:1016E800F6FFB3C0F7FF0800F5CF07F003011E515E
:1016F800AAEC26F003013B4B3C2BD2D7800E0427E3
:10170800000E05231E4B1F2B1FBFC6D71F5104E118
:10171800080E1E5DD8A0C0D70B0E0001B36F260EB1
:10172800B26F5D0EE82EFED7B22FFCD7B32FFAD7D3
:1017380000D0070E0C6E000E0D6E7F0E0E6E000EA2
:101748004CEC26F0470E016E030E026E700E036E0F
:101758007E0E046E800E056E7D0E066E800E076E80
:10176800020E086E780E096E7A0E0A6E700E0B6EF7
:10177800790E0C6ED3EC27F0000E076E000E066E85
:1017880032EC22F068C132F069C133F0000E356ED8
:10179800000E346E000E376E000E366E000E396E77
:1017A800000E386EABEC17F023EE12F0050EDE6A71
:1017B800E806FDE223EE18F0050EDE6AE806FDE213
:1017C80021EE79F013EE32F0050EDBCFE3FFE806E9
:1017D800FCE20F0E266EEF0E276E7F0E286E020EAD
:1017E800B6EC25F0100E266EF70E276E7F0E286ECB
:1017F800050EB6EC25F0150E266EBCC027F0286A3B
:10180800020EEFEC20F0150E266EBBC027F0286AFA
:10181800050EEFEC20F0000E0301426F000E416F41
:1018280042BF06D042514EE1060E415DD8B04AD0C3
:10183800180E4125D96E030E4221DA6E500E016E44
:10184800180E4125E16E030E4221E26EE7502FEC9F
:1018580028F0DF6E180E03014125D96E030E4221D0
:10186800DA6EDF500001B26FD890B233D890B2333D
:10187800D890B2310301026F120E4125D96E030EC2
:101888004221DA6EDF500F6E106A0FBE1006000E8E
:10189800126E080E116E50EC24F00F500301036F06
:1018A800120E4125D96E030E4221DA6E000EDBBE00
:1018B80005D003C311F0025182EC25F00301414B1E
:1018C800422BAED78CC00FF08DC010F0000E126EF8
:1018D800100E116E50EC24F00FC008F310C009F37D
:1018E80000018651D8A43CEF11F05D2A0F0E5D640B
:1018F80002D0000E5D6E6C516D11D8A404D05D3815
:10190800E8461F0B16D06C056D11D8A402D0020E44
:1019180010D0020E6C196D11D8A402D0030E09D094
:10192800030E6C196D11D8A406D05D38E8461F0B5C
:10193800040F0301326F00016E516F11D8B403D048
:101948000301328D02D00301329D00016A516B11EF
:10195800D8A45DA003D0800E0301326FC0EC13F051
:1019680000018351D8B4C1D083516827000E83BFCA
:10197800FF0E6923060E0301336F040E000168256C
:10198800016E000E6921026E040E8425036E046A3E
:10199800000E04227CEC20F0B26FB25103010A6FF2
:1019A8000B6B0A290B11D8B409D00A51FAEC1DF0B7
:1019B800000E0001836F800E0301336F040E0001D7
:1019C80068251D6E000E69211E6E040E84251F6E8B
:1019D800206A000E20227DEC23F00001B26FB25184
:1019E8000301006F016B0C0E00190111D8A457D028
:1019F800040E000168250F6E000E6921106E000E9E
:101A0800126E080E116E50EC24F00FC017F010C0C3
:101A180018F0040E000184250F6E106A000E1022C3
:101A2800000E126E080E116E50EC24F00FC019F063
:101A380010C01AF0D2EC24F0000E126E080E116ECF
:101A4800040E68250F6E000E6921106E50EC24F00C
:101A58000FC017F010C018F0000E1A6E500E196E55
:101A68004AEC25F017C01DF018C01EF0040E000146
:101A780084250F6E106A000E1022000E126E080EDA
:101A8800116E50EC24F00FC01FF010C020F032ECA3
:101A980023F0000E0001836F800E0301336F400EA8
:101AA80000018C25B26F000E8D21B36F6851B25DB5
:101AB800B351800AB46F6951800AB459D8A010D0C4
:101AC800F80E8C25B26FFF0E8D21B36FB251685D91
:101AD8006951800AB46FB351800AB459D8B005D09F
:101AE800000E836F800E0301336F00018551D8B457
:101AF80048D06E516F11D8A404D003013D693E69E6
:101B080005D0000E03013E6F010E3D6F3D053E11ED
:101B1800D8A411D0000169BF05D069510CE168054E
:101B2800D8B009D003013D510001682703013E5197
:101B38000001692309D003013D2906E13E29D8A403
:101B480003D0000169AFEED70301185100016825E1
:101B5800176E000E6921186E000E1A6E500E196E5F
:101B68004AEC25F017500301196F12C313F3060E40
:101B7800336F00018505D8A413D0800E0301336F9D
:101B88000FD068C017F069C018F0000E1A6E500E1A
:101B9800196E4AEC25F017500301196F84C013F32E
:101BA800930E0301106F010E116F000E216F000ECE
:101BB800206F21BF06D021511FE1040E205DD8B04F
:101BC8001BD020EE06F01051D9261151DA22800ED2
:101BD800DE18DE10D8B408D010C31EF011C31FF0F1
:101BE80020C320F009EC00F0100E03011027000EAE
:101BF8001123204B212BDDD774C00FF075C010F0D6
:101C0800000E126E0A0E116E50EC24F000018C5179
:101C18000F5C0301396F00018D51105803013A6FB1
:101C280000018905D8B41CD08251D8A419D0030169
:101C38003ABF09D03A5104E1150E395DD8A003D056
:101C480000018C4B8D2B03013ABF06D03A5108E1B5
:101C58000A0E395DD8B004D000018C07D8A08D07D2
:101C680000018DAF04D0000E8D6F000E8C6F030144
:101C78003ABF17D03A5104E1380E395DD8A011D0D7
:101C88008CC017F08DC018F0000E1A6E0A0E196E6F
:101C98007FEC28F0260E17240001746F020E18201E
:101CA800756F03013ABF05D03A5114E13905D8B030
:101CB80011D08CC017F08DC018F0000E1A6E0A0EE5
:101CC800196E7FEC28F0140E17240001746F000EB3
:101CD8001820756F000175BF06D0755108E10A0E0E
:101CE800745DD8B004D0000E756F0A0E746F040EC0
:101CF8008919D8A452D076C017F077C018F078C0E8
:101D080019F079C01AF07FEC28F0175000018C5DAB
:101D180003010C6F185000018D5903010D6FC00E9F
:101D280000017825B26FFF0E7921B36F03010C51C2
:101D38000001B25DB351800AB46F03010D51800AEE
:101D48000001B459D8B013D0010E7625176E000ED5
:101D58007721186E78C019F079C01AF07FEC28F056
:101D6800C00E172400018C6FFF0E18208D6F030121
:101D78000DBF05D00D5111E10C05D8B00ED076C0BD
:101D880017F077C018F078C019F079C01AF07FEC16
:101D980028F017C08CF018C08DF000018C517E5DC2
:101DA8007F51800AB26F8D51800AB259D8B004D0E1
:101DB8007EC08CF07FC08DF07EC017F07FC018F019
:101DC800000E1A6E0A0E196E7FEC28F0300E1724DA
:101DD8000001B26F020E1820B36F7451B25DB35197
:101DE800800AB46F7551800AB459D8B011D07EC03A
:101DF80017F07FC018F0000E1A6E0A0E196E7FECED
:101E080028F0300E17240001746F020E1820756F29
:101E180073AFEED08905D8B404D0040E8919D8A4BC
:101E280003D08205D8A405D0000E736F000E726F20
:101E3800DFD08905D8A466D07E518C5D8D51800A8B
:101E4800B26F7F51800AB259D8B0EED7200E7427EE
:101E5800030E7523010E736FF40E726F500E8C27EC
:101E6800000E8D23000E0301236F030E226F23BF84
:101E780006D0235114E1200E225DD8B010D0D8909E
:101E88002235D96E2335DA6E930ED926010EDA2261
:101E9800800EDE6E000EDD6E224B232BE8D78CC041
:101EA8000FF08DC010F0000E126E100E116E50EC77
:101EB80024F00FC024F310C025F309D024C328F060
:101EC80003012451C6EC23F00301244B252B8CC0BD
:101ED8000FF08DC010F0000E126E100E116E50EC47
:101EE80024F0050E0F26000E10220F500301245D6A
:101EF8002551800A0001B26F1050800AB259D8B03B
:101F080077D0DCD7040E8919D8A472D07E518C5DA5
:101F18008D51800AB26F7F51800AB259D8B084D7E8
:101F2800764B772B78C017F079C018F0000E1A6E30
:101F38000A0E196E7FEC28F017500001742718500C
:101F48007523010E736FF40E726F78518C277951D7
:101F58008D23000E0301276F030E266F27BF06D0BF
:101F6800275114E1200E265DD8B010D0D890263520
:101F7800D96E2735DA6E930ED926010EDA22800E35
:101F8800DE6E000EDD6E264B272BE8D78CC00FF0D7
:101F98008DC010F0000E126E100E116E50EC24F071
:101FA8000FC028F310C029F309D028C328F0030173
:101FB8002851C6EC23F00301284B292B8CC00FF0C5
:101FC8008DC010F0000E126E100E116E50EC24F041
:101FD800050E0F26000E10220F500301285D29510F
:101FE800800A0001B26F1050800AB259D8A0DDD71C
:101FF80073BFA5D0310E725D020E7359D8A09FD061
:102008008905D8B404D0040E8919D8A403D0820550
:10201800D8A403D058EC28F092D08905D8A43FD092
:10202800E00E7427FC0E7523000E736F3C0E726F62
:10203800B00E8C27FF0E8D238CC00FF08DC010F0D2
:10204800000E126E100E116E50EC24F00FC02AF321
:1020580010C02BF309D02AC328F003012A51C6EC7B
:1020680023F003012A4B2B2B8CC00FF08DC010F0EE
:10207800000E126E100E116E50EC24F0050E0F2695
:10208800000E10220F5003012A5D2B51800A000117
:10209800B26F1050800AB259D8B051D0DCD7040EB4
:1020A8008919D8A44CD07607D8A0770778C017F03C
:1020B80079C018F0000E1A6E0A0E196E7FEC28F01F
:1020C80017500001745F1850755B000E736F3C0E5B
:1020D800726F78518C5F79518D5B8CC00FF08DC019
:1020E80010F0000E126E100E116E50EC24F00FC09E
:1020F8002CF310C02DF309D02CC328F003012C5168
:10210800C6EC23F003012C4B2D2B8CC00FF08DC097
:1021180010F0000E126E100E116E50EC24F0050E29
:102128000F26000E10220F5003012C5D2D51800A3E
:102138000001B26F1050800AB259D8A0DDD772C022
:102148000FF073C010F0000E126E0A0E116E50ECF4
:1021580024F00F503F0B0301126F000E126E0A0E8F
:10216800116E74C00FF075C010F050EC24F00FC061
:1021780017F010C018F0000E1A6E500E196E4AECC7
:1021880025F017500301186F000E386F000E446FCA
:10219800020E436F44BF08D0445105E1060E435D6B
:1021A800D8B0CFD001D0CDD0180E4325D96E030EAC
:1021B8004421DA6E3851020D930EF324E16E010EBC
:1021C800F420E26EE6CF17F0E5CF18F0000E1A6E95
:1021D800500E196E4AEC25F01750DF6E180E0301E9
:1021E8004325D96E030E4421DA6E800EDF640FD0CA
:1021F800180E4325D96E030E4421DA6E180E4325B6
:10220800E16E030E4421E26EE750500FDF6E385145
:102218000001B26FB36BD890B237B337950EB225C1
:10222800D96E010EB321DA6E120E03014325E16E59
:10223800030E4421E26EDFCFE7FF38510001B26F91
:10224800B36BD890B237B337990EB225D96E010E59
:10225800B321DA6E320E03014325E16E030E4421E9
:10226800E26EDFCFE7FF080E3827434B442B92D7A7
:102278008605D8A449D0180E016E030E026E120E00
:10228800036E030E046E320E056E030E066E8C0E80
:10229800076E3FEC1DF0E806D8A453D05FEC21F0A0
:1022A80000018951D8A402D0000E866F800E030168
:1022B800326F800E336F020E00018919D8A441D005
:1022C80074C00FF075C010F0000E126E0A0E116E79
:1022D80050EC24F00F500301186F72C00FF073C058
:1022E80010F0000E126E0A0E116E50EC24F00F5012
:1022F8000301126F18C319F31251F80F136F7BEC17
:1023080026F0020E00011CD0020E8619D8A419D09E
:10231800180E016E030E026E120E036E030E046E8B
:10232800320E056E030E066E8C0E076E3FEC1DF026
:10233800E806D8A406D0030E0001896102D0000E79
:10234800866F8CC017F08DC018F0000E1A6E500EF4
:10235800196E4AEC25F017C080F018C081F08CC0C7
:102368000FF08DC010F0000E126E100E116E50ECB2
:1023780024F00F500301085D0951800A0001B26F73
:102388001050800AB259D8B0B4D08CC00FF08DC0AC
:1023980010F0000E126E100E116E50EC24F00F505B
:1023A800040F286E80C00FF081C010F0000E126E6E
:1023B800100E116E50EC24F00F50040FC6EC23F0F1
:1023C80003010E6966D0000E0301066F000E2F6F21
:1023D800070E2E6F2FBF06D02F511EE11F0E2E5D48
:1023E800D8B01AD0D8902E35D96E2F35DA6E930E14
:1023F800D926010EDA2200017A51DE1807E17B5155
:10240800DE18D8A403D0010E0301066F080E0301DD
:102418002E27000E2F23DED70651D8A437D07AC036
:10242800B2F07BC0B3F00001D890B237B337D89080
:10243800B237B337B2517C25B46FB3517D21B56F34
:10244800B4C0F6FFB5C0F7FF0800F550100D8C5169
:10245800F3181CE18D51F418D8A418D07AC0B2F042
:102468007BC0B3F0D890B237B337D890B237B33710
:10247800B2517C25016EB3517D21026E7AC003F002
:102488000E0E046E030E056E38EC1CF000017A4B3C
:102498007B2B7AC0B2F07BC0B3F00001D890B23782
:1024A800B337D890B237B337B2517C25B46FB35134
:1024B8007D21B56FB4C0F6FFB5C0F7FF0800F55031
:1024C800100DF3508C5D8D51800AB66FF450800A60
:1024D800B659D8A00ED00101745100017A5D7B5124
:1024E800800AB26F01017551800A0001B259D8A063
:1024F8006AD78CC00FF08DC010F0000E126E100E4F
:10250800116E50EC24F0030108510F5C1050800A42
:102518000001B26F03010951800A0001B259D8B015
:10252800CED003010F698CC00FF08DC010F0000EE3
:10253800126E100E116E50EC24F00F50286E80C0F1
:102548000FF081C010F0000E126E100E116E50ECDC
:1025580024F00F50C6EC23F003D07A07D8A07B07ED
:10256800010E00018C25B26F000E8D21B36F7AC069
:10257800B4F07BC0B5F0D890B437B537D890B4373D
:10258800B537B4517C25B66FB5517D21B76FFC0EB8
:10259800B625B86FFF0EB721B96FB8C0F6FFB9C03E
:1025A800F7FF0800F550100DB251F35CF450800AA3
:1025B800BA6FB351800ABA59D8B07BBF05D07B51E6
:1025C800CCE17A05D8B0C9D78905D8A471D0FF0E57
:1025D8007A2503013F6FFF0E00017B210301406F45
:1025E80045D0000E076F000E316F070E306F31BFF8
:1025F80006D031511BE11F0E305DD8B017D0D890EE
:102608003035D96E3135DA6E930ED926010EDA22BD
:102618003F51DE1806E14051DE18D8A402D0010E61
:10262800076F080E3027000E3123E1D70751D8A4D1
:1026380019D03FC3B2F040C3B3F00001D890B2370D
:10264800B337D890B237B337B2517C25016EB35146
:102658007D21026E3FC303F00F0E046E030E056E5C
:1026680038EC1CF003013F07D8A040073FC3B2F085
:1026780040C3B3F00001D890B237B337D890B2371F
:10268800B337B2517C25B46FB3517D21B56FB4C057
:10269800F6FFB5C0F7FF0800F550100D8C51F31880
:1026A80007E18D51F418D8A403D0030140AF99D79E
:1026B80000017BAF04D0000E7B6F000E7A6F000E16
:1026C8000301466F000E456F46BF06D046513CE1F8
:1026D800060E455DD8B038D0320E4525D96E030EAA
:1026E8004621DA6EDFBE2CD0120E4525D96E030EB8
:1026F8004621DA6E000EDBBE23D0120E4525D96EB8
:10270800030E4621DA6EDF50016E320E4525D96E72
:10271800030E4621DA6EDF503F0B026E320E45255E
:10272800D96E030E4621DA6EDF50400B036E180E89
:102738004525D96E030E4621DA6EDF5083EC19F079
:102748000301454B462BC0D7000181BF0AD08151F8
:1027580004E1500E805DD8A004D0000E816F000EF9
:10276800806F81AF04D0000E816F4F0E806F805153
:1027780012EC1FF00FEF0CF0000E80B4010E0001F8
:10278800946F000E80B0010E956F000E80B6010E9A
:10279800966F000E80BA010E976F000E126E0A0E29
:1027A800116E74C00FF075C010F050EC24F00FC01B
:1027B80017F010C018F0000E1A6E500E196E4AEC81
:1027C80025F017C0AEF018C0AFF072C00FF073C09C
:1027D80010F0000E126E0A0E116E50EC24F03F0E2F
:1027E8000F140001B06FB16B74C00FF075C010F01A
:1027F800000E126E0A0E116E50EC24F00FC0ACF0F1
:1028080010C0ADF0040E0001AC25016E000EAD2124
:10281800026E040EB025036E000EB121046E7CEC2E
:1028280020F0A76FA729D8B40ED0A7518E6F8F6B51
:10283800D8908E378F37970E8E25D96E010E8F213F
:10284800DA6EDF50A76FA729D8B41AD06A516B1176
:10285800D8A416D0000E6B6F1E0E6A6FFF0E716F34
:10286800EC0E706FBC07150E266EBCC027F0286AE8
:10287800020EEFEC20F00001BC51D8B458EC28F05F
:1028880000016A516B11D8B403D06A07D8A06B074E
:10289800000E01015F6F000E5E6F000E00019F6F5A
:1028A8000A0E9E6F6C516D11D8B404D0000E9F6F44
:1028B800050E9E6F020E7027000E712370C00FF078
:1028C80071C010F0000E126E0A0E116E50EC24F05A
:1028D8000001B0510F26B1511022080E0F24A86F25
:1028E800000E1020A96FAEC025F0AFC026F0A8C01A
:1028F80027F0A9C028F004EC28F0E806D8B462D084
:1029080070C00FF071C010F0000E126E0A0E116E3A
:1029180050EC24F00001B0510F26B1511022080EDE
:102928000F24A86F000E1020A96F070EAE25256E84
:10293800000EAF21266EA8C027F0A9C028F004EC2D
:1029480028F0E806D8B43ED070C00FF071C010F07F
:10295800000E126E0A0E116E50EC24F00001B051F8
:102968000F24A86FB1511020A96FAEC025F0AFC0D9
:1029780026F0A8C027F0A9C028F004EC28F0E80643
:10298800D8B420D070C00FF071C010F0000E126ED5
:102998000A0E116E50EC24F00001B0510F24A86FFC
:1029A800B1511020A96F070EAE25256E000EAF217C
:1029B800266EA8C027F0A9C028F004EC28F0E80685
:1029C800D8A425D0000E126E500E116E460E0001CE
:1029D80072250F6E000E7321106E50EC24F00FC09C
:1029E80017F010C018F0000E1A6E500E196E7FEC1A
:1029F80028F017C072F018C073F0000E0001716F54
:102A0800000E706F000E01015F6F010E5E6F000116
:102A180071BF0AD0715104E1280E705DD8A004D0AE
:102A2800000E716F280E706F7051722771517323E9
:102A380072C00FF073C010F0000E126E0A0E116E05
:102A480050EC24F03F0E0F140001B06FB16B000E74
:102A5800A46F000EA16F000EA06F000EA36F000EF2
:102A6800A26F040EAE251D6E000EAF211E6E040E61
:102A7800B0251F6E000EB121206E7DEC23F0080AF0
:102A8800D8A42DD0020E0001A46F74C00FF075C039
:102A980010F0000E126E0A0E116E50EC24F0040EA7
:102AA8000F26000E1022F80E0F140001A06FFF0E63
:102AB8001014A16F72C00FF073C010F0000E126EE8
:102AC8000A0E116E50EC24F0040E0F26000E102290
:102AD800F80E0F140001A26FFF0E1014A36F00016F
:102AE8009705D8A43CD001015A515B11D8A432D023
:102AF8005E515F11D8B409D000016C056D11D8B4CE
:102B080004D0FF0E716FE20E10D000016DBF06D029
:102B18006D510CE1020E6C5DD8B008D0000E6D6FDF
:102B2800010E6C6FFF0E716FEC0E706F040EAE2508
:102B38001D6E000EAF211E6E040EB0251F6E000E16
:102B4800B121206E7DEC23F0060AD8A403D0010E33
:102B58000001A46F000E01015B6F010E04D0000E8E
:102B680001015B6F000E5A6F00019505D8A430D0A3
:102B7800020E6C196D11D8B42BD0080EAE25256E37
:102B8800000EAF21266E070EB025276E000EB1216C
:102B9800286E04EC28F0E806D8B415D0080E000119
:102BA800AE25256E000EAF21266EB0C027F0B1C04D
:102BB80028F004EC28F0E806D8B405D000019E51AE
:102BC80074279F517523000E00016F6F000E6E6F02
:102BD8009405D8A430D0020E6C196D11D8B42BD03E
:102BE800FF0EAE25256EFF0EAF21266E070EB0250F
:102BF800276E000EB121286E04EC28F0E806D8B440
:102C080015D0FF0E0001AE25256EFF0EAF21266EF2
:102C1800B0C027F0B1C028F004EC28F0E806D8B41A
:102C280005D000019E51745F9F51755B000E000135
:102C38006F6F010E6E6F020E6C196D11D8A49FD0C4
:102C48008551D8A49CD06E516F11D8A404D0000E21
:102C5800AB6F070E03D0FF0EAB6FF90EAA6FAA5128
:102C6800AC258E6FAB51AD218F6F070E8E25016E8F
:102C7800000E8F21026E040EB025036E000EB121E6
:102C8800046E7CEC20F0906F90519A6F9B6BAA5168
:102C9800AC25016EAB51AD21026E040EB025036E5A
:102CA800000EB121046E7CEC20F08E6F8E519C6F6B
:102CB8009D6BAA51AE258E6FAB51AF218F6F040E5D
:102CC8008E251D6E000E8F211E6E040EB0251F6E00
:102CD800000EB121206E7DEC23F00001906F905121
:102CE800A56FA66B9A299B11D8B408D0ACC057F031
:102CF800ADC058F09A51CAEC21F041D09C299D11E1
:102D0800D8B408D0ACC057F0ADC058F09C51CAEC4C
:102D180021F035D0A6BF33D0A65104E10C0EA55D35
:102D2800D8A02DD0A6BF06D0A65129E1150EA55DC5
:102D3800D8B025D0ACC029F0ADC02AF0AA51AE2534
:102D48008E6FAB51AF218F6F040E8E252B6E000E48
:102D58008F212C6E040EB0252D6E000EB1212E6E23
:102D6800AA51AC25906FAB51AD21916F040E9025FF
:102D78002F6E000E9121306EA55109EC20F0000154
:102D88009605D8A44DD0010158515911D8A443D063
:102D980000016C056D11D8A404D0000E6D6F000EF3
:102DA80007D06C516D11D8A404D0000E6D6F020EBF
:102DB8006C6F030E6C196D11D8A42DD0000E6D6FB9
:102DC800000E6C6F74C00FF075C010F0000E126E1C
:102DD8000A0E116E50EC24F00FC068F010C069F0B4
:102DE80072C00FF073C010F0000E126E0A0E116E52
:102DF80050EC24F00F500001846F6E516F11D8A46D
:102E080004D0000E996F030E03D0FF0E996FFD0ECC
:102E1800986F98C083F0000E0101596F010E10D011
:102E2800020E6C196D11D8A407D08551D8A404D00E
:102E3800000E6D6F000E6C6F000E0101596F000ED1
:102E4800586F00018551D8B40BD085078551D8A497
:102E580007D0000E6D6F030E6C6F8751E9EC25F0FB
:102E68000001A405D8A403D05FEC21F01200020EE3
:102E7800A419D8A41200280E74250F6E000E75210F
:102E8800106E010E126E400E116E50EC24F00FC041
:102E980092F010C093F0A0C068F0A1C069F00001E2
:102EA800A251F80F846FA0C017F0A1C018F0000E4F
:102EB8001A6E0A0E196E7FEC28F017C074F018C04D
:102EC80075F0A2C017F0A3C018F0000E1A6E0A0E13
:102ED800196E7FEC28F017C072F018C073F0010E5D
:102EE8000001866F000E1CEC26F0040E0001AE25D2
:102EF8000F6E000EAF21106E000E126E080E116ECE
:102F080050EC24F0D8900F361036D8900F36103683
:102F1800D8900F361036800E0F2400018E6F020EE7
:102F280010208F6F040EB0250F6E000EB121106EA9
:102F3800000E126E080E116E50EC24F00F500001B6
:102F48008E25D96E10508F21DA6EDF6A120032C0DA
:102F580088F05AEC27F0000E716F000E706F000EAB
:102F68007B6F000E7A6F000E6D6F000E6C6F32C0B3
:102F780017F033C018F0000E1A6E060E196E7FECAB
:102F880028F017C032F018C033F0000E00018D6F22
:102F9800000E8C6FD8903234F66E3334F76ED50E3F
:102FA800F626750EF7220900F5CF3AF00900F5CF9D
:102FB8003BF01D0E3A243C6E780E3B203D6E01011D
:102FC80066513C24766F67513D20776F32C03AF0E6
:102FD80033C03BF0D8903A363B36020E3A26000E04
:102FE8003B22D50E3A24F66E750E3B20F76E09008B
:102FF800F5CF7EF00A00F5CF7FF032C03AF033C04B
:103008003BF0D8903A363B36040E3A26000E3B2267
:10301800D50E3A24F66E750E3B20F76E0900F5CFF3
:103028003CF00900F5CF3DF064513C2665513D2246
:10303800D8903C363D36D8903C363D36800E3C2400
:1030480000017C6F7C0E3D207D6F32C03AF033C0AA
:103058003BF0D8903A363B36060E3A26000E3B2215
:10306800D50E3A24F66E750E3B20F76E0900F5CFA3
:1030780074F10A00F5CF75F132C03AF033C03BF075
:10308800D8903A363B36080E3A26000E3B22D50E2B
:103098003A24F66E750E3B20F76E01016251090065
:1030A800F524446E63510900F520456E8C0E4424C6
:1030B800726F7F0E4520736F690E4424706F7F0E08
:1030C8004520716F230E44246E6F7F0E45206F6F6D
:1030D800000E44246C6F7F0E45206D6F460E44240D
:1030E8006A6F7F0E45206B6F32C03AF033C03BF0F9
:1030F800D8903A363B360A0E3A26000E3B22D50EB9
:103108003A24F66E750E3B20F76E0800F5CF89F06D
:10311800030E000189651FD089513A6E3B6A060E7D
:10312800D8903A363B36E82EFBD7800E3A24786F93
:10313800FF0E3B20796F040E896F34C00FF035C045
:1031480010F078C011F079C012F050EC24F00FC0E4
:1031580076F010C077F034C017F035C018F0000EC4
:103168001A6E0A0E196E7FEC28F017C074F018C09A
:1031780075F036C017F037C018F0000E1A6E0A0E38
:10318800196E7FEC28F017C072F018C073F038C0C1
:103198008CF039C08DF0000E416E030E406ED89051
:1031A8004034D96E4134DA6E930ED926010EDA22F4
:1031B800800EDE6E000EDD6E080E4026000E4122E7
:1031C80041BEEDD7415004E1200E405CD8A0E7D7BE
:1031D8008CC00FF08DC010F0000E126E100E116E24
:1031E80050EC24F00FC042F010C043F007D042C0AA
:1031F80028F04250C6EC23F0424A432A8CC00FF014
:103208008DC010F0000E126E100E116E50EC24F0EE
:10321800050E0F26000E10220F50425C4350800A04
:103228003A6E1050800A3A58D8A0E1D73F6837D094
:103238007AC03AF07BC03BF0D8903A363B36D8900B
:103248003A363B363A507C253C6E3B507D213D6EEC
:103258003CC0F6FF3DC0F7FF0800F550100D8C513B
:10326800F3181BE18D51F418D8A417D07AC03AF09E
:103278007BC03BF0D8903A363B36D8903A363B364E
:103288003A507C25016E3B507D21026E7AC003F0D6
:103298003F0E046E056A38EC1CF07A4B7B2B01015B
:1032A800745100017A5D7B51800A3A6E01017551B3
:1032B800800A3A58D8B012007AC03AF07BC03BF086
:1032C800D8903A363B36D8903A363B363A500001D9
:1032D8007C253C6E3B507D213D6E3CC0F6FF3DC0D9
:1032E800F7FF0800F550100DF3508C5D8D51800AE2
:1032F8003E6EF450800A3E58D8A0120099D7096E45
:103308000150070B136E01C004F0D8900432D89016
:103318000432D89004320950080DF3CF05F0F4CFE9
:1033280006F0055000016625076E06506721086EF5
:10333800045007240E6E000E08200F6E0250080D70
:10334800F3CF11F0F4CF12F0000E156E000E146ECC
:103358000350D8A470D013C004F011506225056E34
:1033680012506321066E145005261550062205C01A
:10337800F6FF06C0F7FF0800F5CF07F0042A02D0D1
:10338800D8900736042EFCD707500C6E1350080847
:10339800046E115000016225056E12506321066EFD
:1033A800145005261550062205C0F6FF06C0F7FF83
:1033B8000800F5CF07F0042A02D0D8900732042E6F
:1033C800FCD707500D6E13C004F01150000164259E
:1033D800056E12506521066E1450052615500622FA
:1033E80005C0F6FF06C0F7FF0800F5CF07F0042A6E
:1033F80002D0D8900736042EFCD707500A6E135017
:103408000808046E115000016425056E12506521EC
:10341800066E145005261550062205C0F6FF06C094
:10342800F7FF0800F5CF07F0042A02D0D89007323A
:10343800042EFCD77FD013C004F01450625D056ED3
:1034480015506359066E1150052612500622070EB4
:103458000526000E062205C0F6FF06C0F7FF080085
:10346800F5CF07F0042A02D0D8900736042EFCD7EF
:1034780007500C6E13500808046E14500001625D6A
:10348800056E15506359066E115005261250062216
:10349800070E0526000E062205C0F6FF06C0F7FF38
:1034A8000800F5CF07F0042A02D0D8900732042E7E
:1034B800FCD707500D6E13C004F014500001645D72
:1034C800056E15506559066E1150052612500622D4
:1034D800070E0526000E062205C0F6FF06C0F7FFF8
:1034E8000800F5CF07F0042A02D0D8900736042E3A
:1034F800FCD707500A6E13500808046E14500001D8
:10350800645D056E15506559066E115005261250FA
:103518000622070E0526000E062205C0F6FF06C085
:10352800F7FF0800F5CF07F0042A02D0D890073239
:10353800042EFCD707500B6E0EC0D9FF0FC0DAFF60
:10354800DF50106E0C50FF0A1014106E10500A1045
:10355800106E0EC0D9FF0FC0DAFF10C0DFFF0E4A91
:103568000F2A0EC0D9FF0FC0DAFFDF50106E0D50C2
:10357800FF0A1014106E10500B10106E0EC0D9FFF9
:103588000FC0DAFF10C0DFFF780E00016625046E59
:10359800020E6721056E04500E5C05500F58D8A026
:1035A80004D0800E0E5E020E0F5A070E0E26000E75
:1035B8000F22144A152A15BECBD6155005E1080E60
:1035C800145CD8B01200C4D61200D890153616363E
:1035D800D8901536163613C019F014C01AF0D890C2
:1035E80019361A3611C01BF012C01CF01B3A1C3ACF
:1035F800F00E1C161B500F0B1C12F00E1B16800E23
:103608001B241D6E020E1C201E6E19501D24216ED7
:103618001A501E20226E000E276E000E266E2734CA
:1036280027301A6E2630196E1950236E2650010B5A
:10363800246E700E196E7E0E1A6E155019261650CD
:103648001A222650192627501A2219C0F6FF1AC026
:10365800F7FF0800F5CF25F021C0D9FF22C0DAFF17
:1036680025C0DFFF259E0C0E2518D8A446D017C00C
:1036780019F018C01AF0D89019361A3623501924A0
:10368800016E000E1A20026E13C01BF014C01CF04D
:10369800D8901B361C3624501B24036E000E1C20A9
:1036A800046E0BEC24F01F6E1F04D8A406D021C0B2
:1036B800D9FF22C0DAFFDF6A20D0020E1F18D8A473
:1036C8001CD017C019F018C01AF0D89019361A363D
:1036D80023501924016E000E1A20026E13C01BF02D
:1036E80014C01CF0D8901B361C3624501B24036EC3
:1036F800000E1C20046E6CEC28F00C0E25644FD0D4
:10370800150E25604CD017C019F018C01AF0D890C3
:1037180019361A3623501924016E000E1A20026E2B
:1037280013C01BF014C01CF0D8901B361C36245054
:103738001B24036E000E1C20046E88C005F0066A68
:103748008FEC22F0206E2004D8A406D021C0D9FF27
:1037580022C0DAFFDF6A23D0020E2018D8A41FD0B7
:1037680017C019F018C01AF0D89019361A36235015
:103778001924016E000E1A20026E13C01BF014C02B
:103788001CF0D8901B361C3624501B24036E000EE8
:103798001C20046E88C005F0066A9DEC27F0214ABB
:1037A800222A26042710D8A404D0060E2126000EAB
:1037B8002222264A272A27BE32D7275004E1040EA0
:1037C800265CD8A02CD7D8901134016E1234026E22
:1037D800D8901334036E1434046E92EC1FF011C0A9
:1037E80019F012C01AF0D89019361A36010E192499
:1037F800016E000E1A20026ED8901334036E143432
:10380800046E92EC1FF0D8901134016E1234026EDF
:1038180013C019F014C01AF0D89019361A36010ED0
:103828001924036E000E1A20046E92EC1FF011C0CA
:1038380019F012C01AF0D89019361A36010E192448
:10384800016E000E1A20026E13C01BF014C01CF08B
:10385800D8901B361C36010E1B24036E000E1C204C
:10386800046E92EC1FF01200000E0B6E000E0A6E32
:10387800D8900A34D96E0B34DA6E990ED926010E17
:10388800DA22800EDE18DE10D8A4E7D0010E01245B
:10389800066E000E0220076E06C0F6FF07C0F7FF8F
:1038A8000800F5508C25086E000E8D21096ED89001
:1038B8000A34D96E0B34DA6E930ED926010EDA2249
:1038C80008C0DEFF09C0DDFF020E0124066E000EEF
:1038D8000220076E06C0F6FF07C0F7FF0800F55084
:1038E800086E096AD8900A34D96E0B34DA6E950ED0
:1038F800D926010EDA2208C0DEFF09C0DDFF030E5B
:103908000124066E000E0220076E06C0F6FF07C0EF
:10391800F7FF0800F550086E096AD8900A34D96E86
:103928000B34DA6E970ED926010EDA2208C0DEFFB4
:1039380009C0DDFFD8900A34D96E0B34DA6E990EBF
:10394800D926010EDA22DE6ADD6AD8900A34D96EE9
:103958000B34DA6E9B0ED926010EDA22DE6ADD6A96
:10396800D8900A34D96E0B34DA6E9D0ED926010E22
:10397800DA22DE6ADD6AD8900A34D96E0B34DA6E40
:103988009F0ED926010EDA22DE6ADD6A0350066E22
:10399800076AD8900A34D96E0B34DA6EA10ED9268C
:1039A800010EDA2206C0DEFF07C0DDFF030E012488
:1039B800066E000E0220076E06C0F6FF07C0F7FF6E
:1039C8000800F550070AD8B40FD0030E0124066E7C
:1039D800000E0220076E06C0F6FF07C0F7FF0800BA
:1039E800F550160AD8A414D004C0D9FF05C0DAFFD0
:1039F800DF50066E076AD8900A34D96E0B34DA6E37
:103A08009F0ED926010EDA2206C0DEFF07C0DDFFB1
:103A1800030E0124066E000E0220076E06C0F6FF94
:103A280007C0F7FF450E0800F56410D0030E012407
:103A3800066E000E0220076E06C0F6FF07C0F7FFED
:103A4800500E0800F56002D0010E826F04C0D9FF45
:103A580005C0DAFF0AC0DFFF1200080E0A26000EB2
:103A68000B220BBE05D70B5005E1200E0A5CD8B01F
:103A78001200FED61200000E0E6E000E0D6E710EB4
:103A8800086E770E096E60510826615109220D50A3
:103A980008260E50092208C0F6FF09C0F7FF0800E3
:103AA800F5CF0AF00D500124D96E0E500220DA6EBF
:103AB8000A50DF262D0E086E770E096E6051082613
:103AC800615109220D5008260E50092208C0F6FF40
:103AD80009C0F7FF0800F5CF0AF00D500324D96E8E
:103AE8000E500420DA6E0A50DF26E90E086E760EB4
:103AF800096E60510826615109220D5008260E50A2
:103B0800092208C0F6FF09C0F7FF0D500524D96E39
:103B18000E500620DA6E0800F5CFDFFF0D4A0E2A98
:103B28000EBEADD70E5004E1040E0D5CD8A0A7D789
:103B38000750D96EDA6AFF0E01014825F66E770E36
:103B48004921F76E0800F550DE26000EDD224A07EF
:103B5800D8A04B074A514B11D8A446D0484B492B03
:103B6800040E00016027000E6123000E0C6E000E8B
:103B78000B6EE90E086E760E096E605108266151CB
:103B880009220B5008260C50092208C0F6FF09C06C
:103B9800F7FF0B500524D96E0C500620DA6E08008A
:103BA800F5CFDFFF0B4A0C2A0CBEE3D70C5004E11B
:103BB800040E0B5CD8A0DDD7ED0E01014825F66E8A
:103BC800770E4921F76E0800F550FF0AD8A402D0F5
:103BD800010E1200ED0E4825F66E770E4921F76E9C
:103BE8000800F5504A6F4B6B000E1200566E565087
:103BF800526E536AD89052365336970E5224D96E65
:103C0800010E5320DA6E010EDBBE07D0010EDB5029
:103C180025E1460EDE5CD8B021D05650526E536A6C
:103C2800D89052365336990E5224D96E010E53202D
:103C3800DA6E800EDE6E000EDD6E5650526E536ADE
:103C4800D89052365336A10E5224D96E010E532005
:103C5800DA6EFF0EDE6EFF0EDD6E12000001BB078E
:103C6800150E266EBBC027F0286A050EEFEC20F073
:103C78000001BB51D8A412005650526E536AD89016
:103C880052365336970E5224D96E010E5320DA6EEF
:103C9800010EDBBE07D0010EDB5007E1500EDE5CE3
:103CA800D8B003D044EC28F012005650526E536A34
:103CB800D89052365336990E5224D96E010E53209D
:103CC800DA6E800EDE6E000EDD6E5650526E536A4E
:103CD800D89052365336A10E5224D96E010E532075
:103CE800DA6EFF0EDE6EFF0EDD6E5FEC21F0060E63
:103CF8000001BB6F150E266EBBC027F0286A050EA3
:103D0800EFEC20F012001B6E000E1D6E000E1C6EF4
:103D1800D8901C34D96E1D34DA6E990ED926010E4E
:103D2800DA22800EDE18DE10D8A46AD01B50196E75
:103D38001A6AD8901C34D96E1D34DA6E930ED926BF
:103D4800010EDA2219C0DEFF1AC0DDFF1750196E06
:103D58001A6AD8901C34D96E1D34DA6E950ED9269D
:103D6800010EDA2219C0DEFF1AC0DDFF1850196EE5
:103D78001A6AD8901C34D96E1D34DA6E970ED9267B
:103D8800010EDA2219C0DEFF1AC0DDFFD8901C34FC
:103D9800D96E1D34DA6E990ED926010EDA22DE6A42
:103DA800DD6AD8901C34D96E1D34DA6E9B0ED92684
:103DB800010EDA22DE6ADD6AD8901C34D96E1D3411
:103DC800DA6E9D0ED926010EDA22DE6ADD6AD890F7
:103DD8001C34D96E1D34DA6E9F0ED926010EDA22F4
:103DE800DE6ADD6AD8901C34D96E1D34DA6EA10EF5
:103DF800D926010EDA22FF0EDE6E000EDD6E1200ED
:103E0800080E1C26000E1D221DBE82D71D5005E17E
:103E1800200E1C5CD8B012007BD71200106E105018
:103E2800080DF3CF0CF0F4CF0DF00C50000166250F
:103E3800116E0D506721126E105050080E6E000E54
:103E4800D8A0E82A00080F6E000E166E000E156E38
:103E58005BD0000E066E11C0D9FF12C0DAFFDF502A
:103E6800076E1550AAEC26F0080E1124136E000EEA
:103E78001220146E000E186E010E176E0DD013C0AE
:103E8800D9FF14C0DAFFDF501AEC28F0080E132609
:103E9800000E1422174A182A18BE06D018500EE130
:103EA800400E175CD8B00AD00E50175C1850800A24
:103EB8000C6E0F50800A0C58D8A0E1D7400E171886
:103EC8001810D8B415D0155000016625136E165079
:103ED8006721146E0DD013C0D9FF14C0DAFFDF506C
:103EE8001AEC28F0080E1326000E1422174A182A76
:103EF80018BEF1D7185004E1400E175CD8A0EBD7D4
:103F0800114A122A154A162A16BEA3D7165005E1D9
:103F1800080E155CD8B012009CD7120001C005F03D
:103F280002C006F0060ED89005360636E82EFBD7F6
:103F3800055000016625076E06506721086E03507C
:103F480007240C6E045008200D6E01C005F002C055
:103F580006F0D89005360636D89005360636D8903D
:103F680005360636055001014E25076E06504F21CD
:103F7800086E03500724D96E04500820DA6EDF500B
:103F88000E6E0E50800B096E0E9E0E50080DF3CF6C
:103F98000AF0F4CF0BF0000E106E000E0F6E0950F1
:103FA800D8A40AD00A505025056E0B505121066E30
:103FB8000F50052610500DD00F50505D056E105053
:103FC8005159066E0A5005260B500622070E052683
:103FD800000E062205C0F6FF06C0F7FF0CC0D9FF89
:103FE8000DC0DAFF0800F5CFDFFF080E0C26000E23
:103FF8000D220F4A102A10BED2D7105005E1080E24
:104008000F5CD8B01200CBD71200316E29502F5C4C
:104018000001686F2A503058696F2FC00FF030C008
:1040280010F0000E126E080E116E50EC24F00FC046
:104038002FF010C030F02BC00FF02CC010F0000E85
:10404800126E080E116E50EC24F00FC02BF010C049
:104058002CF02BC017F02CC018F0000E1A6E0A0EA8
:10406800196E4AEC25F017C02BF018C02CF02DC0A3
:104078000FF02EC010F0000E126E080E116E50ECEC
:1040880024F00FC02DF010C02EF0070E2D16000ED4
:104098002E160F0E0001856F0C0E3118D8A40BD008
:1040A8002FC017F030C018F02DC019F02EC01AF02C
:1040B800D2EC24F012D00C0E31640FD031C087F04E
:1040C8002FC001F030C002F02DC003F02EC004F064
:1040D80088C005F0066AE4EC22F02BC01DF02CC065
:1040E8001EF02DC01FF02EC020F032EC23F012007D
:1040F800930E0A6E010E0B6E000E096E000E086E0E
:1041080020EE06F00A50D9260B50DA22800EDE186F
:10411800DE10D8B450D00AC0D9FF0BC0DAFF015066
:10412800DE5CDE50800A076E0250800A0758D8B05D
:1041380042D00AC0D9FF0BC0DAFFDECF05F0DDCFD1
:1041480006F0080E0526000E06220550015C0250F6
:10415800800A076E0650800A0758D8B02CD020EE87
:1041680002F00A50D9260B50DA220350DE5CDE50EA
:10417800800A076E0450800A0758D8B01CD020EE79
:1041880002F00A50D9260B50DA22DECF05F0DDCF37
:1041980006F0080E0526000E06220550035C0450A2
:1041A800800A076E0650800A0758D8B004D008382D
:1041B800E842F80B1200100E0A26000E0B22084ADD
:1041C800092A09BE9DD7095004E1040E085CD8A04D
:1041D80097D7FF0E12004A6E28AE15D026C01DF0E4
:1041E8002D0E1E6E4A5011EC25F0262A27C017F016
:1041F80028C018F0FF0E1A6E19687FEC28F017C057
:1042080027F018C028F0000E4C6E000E4B6E275099
:104218002810D8A426D0300E2A6E4B4A4C2A21D01A
:104228004B502A0FD96EDA6A27C017F028C018F049
:10423800000E1A6E0A0E196E4AEC25F01750300F50
:10424800DF6E4B4A4C2A27C00FF028C010F0000E32
:10425800126E0A0E116E50EC24F00FC027F010C039
:1042680028F028BE20D02850DBE12704D8A01BD096
:10427800D7D74B06D8A04C064B502A0FD96EDA6A0E
:10428800DF50296E2950276E286A26C01DF027C0E6
:104298001EF04A5011EC25F0262A7F0E266403D022
:1042A8004A2A000E266E4CBE12004C50E2E14B0426
:1042B800D8A01200DED774C00FF075C010F0000E41
:1042C800126E0A0E116E50EC24F00FC04EF010C0A2
:1042D8004FF0000E516E000E506E02D0504A512A17
:1042E800505001017025466E51507121476E46C0ED
:1042F800F6FF47C0F7FF0800F550100D4E50F35C6D
:10430800F450800A486E4F50800A4858D8A0E6D723
:1043180050507225466E51507321476E46C0F6FFC5
:1043280047C0F7FF0800F5506825326E000E692176
:10433800336E50506E25486E51506F21496E48C0FB
:10434800F6FF49C0F7FF0800F550346E356A505043
:104358006C254A6E51506D214B6E4AC0F6FF4BC01A
:10436800F7FF0800F550366E376A50506A254C6ED4
:1043780051506B214D6E4CC0F6FF4DC0F7FF080041
:10438800F550386E396AABEC17F012005B6E5B5073
:10439800596E5A6AD89059365A36970E5924D96E9A
:1043A800010E5A20DA6EDF505C6E050E5C601AD082
:1043B8000F0E0001856F5B50FAEC1DF05B50020D8B
:1043C800930EF324D96E010EF420DA6EDECF59F085
:1043D800DDCF5AF05750595C0001686F58505A5851
:1043E800696F1200050E5C18D8A414D00F0E0001D6
:1043F800856F5B50596E5A6AD89059365A36970E5F
:104408005924D96E010E5A20DA6E040EDE6E000EA3
:10441800DD6ED4D7060E5C18D8A407D00F0E0001A5
:10442800856F5B50FAEC1DF0C9D7060E5C6403D0AB
:104438000C0E5C640CD0100E5C6403D0120E5C642D
:1044480006D0130E5C641200460E5C6012000F0E5C
:104458000001856F5B50FAEC1DF0B0D7D890063696
:104468000736D89006360736D8900634F66E0734E5
:10447800F76EB50EF626770EF7220900F5CF68F12C
:104488000A00F5CF69F106C008F007C009F0D89016
:1044980008360936020E0826000E0922B50E082431
:1044A800F66E770E0920F76E0900F5CF66F10A005F
:1044B800F5CF67F106C008F007C009F0D8900836B4
:1044C8000936040E0826000E0922B50E0824F66ED9
:1044D800770E0920F76E0900F5CF64F10A00F5CFD1
:1044E80065F106C008F007C009F0D890083609360B
:1044F800060E0826000E0922B50E0824F66E770E61
:104508000920F76E0900F5CF62F10A00F5CF63F1D3
:104518005AEC27F01200000E0B6E000E0A6E40D007
:10452800280E0A24D96E010E0B20DA6EDF50076EB2
:10453800086A0150071832E102500818D8A42ED092
:10454800140E0A24D96E010E0B20DA6EDF507F0B91
:10455800076E086A0350071821E104500818D8A408
:104568001DD0000E0A24D96E010E0B20DA6EDF5022
:10457800076E086A0550071811E106500818D8A4F4
:104588000DD0140E0A24D96E010E0B20DA6E01012B
:10459800DFAE02D0010E1200000E12000A4A0B2AEA
:1045A80000018A51076E086A07500A5C0B50800A9E
:1045B800096E0850800A0958D8A0B2D7020E120016
:1045C800000E0B6E000E0A6E3BD0280E0A24D96E20
:1045D800010E0B20DA6EDF50076E086A01500718CB
:1045E8002DE102500818D8A429D0140E0A24D96E37
:1045F800010E0B20DA6EDF507F0B076E086A03503E
:1046080007181CE104500818D8A418D0000E0A2472
:10461800D96E010E0B20DA6EDF50076E086A05505E
:1046280007180CE106500818D8A408D0140E0A245C
:10463800D96E010E0B20DA6E000EDB8E0A4A0B2AA9
:104648008A51076E086A07500A5C0B50800A096E87
:104658000850800A0958D8B01200B7D71DC021F0F9
:104668001EC022F0060ED89021362236E82EFBD73F
:10467800215000016625236E22506721246E1F50A9
:104688002324256E20502420266E1DC021F01EC034
:1046980022F0D89021362236D89021362236D8906A
:1046A80021362236215001014E25236E22504F21FA
:1046B800246E1F502324D96E20502420DA6EDF6A1E
:1046C800000E286E000E276E25C0D9FF26C0DAFF1F
:1046D800DF6A080E2526000E2622274A282A28BE29
:1046E800F3D7285005E1080E275CD8B01200ECD7A4
:1046F80012001DC00FF01EC010F0000E126E080E42
:10470800116E50EC24F00FC01DF010C01EF01DC03B
:1047180017F01EC018F0000E1A6E0A0E196E4AEC39
:1047280025F017C01DF018C01EF01FC00FF020C0E4
:1047380010F0000E126E080E116E50EC24F00FC02F
:104748001FF010C020F0070E1F16000E20161DC007
:1047580021F01EC022F0D89021362236D89021367A
:104768002236D89021362236800E2124236E020E5E
:104778002220246E1F502324D96E20502420DA6E64
:10478800DF5012002F6E285001017625296E000E89
:1047980077212A6E29C0F6FF2AC0F7FF0800F550D6
:1047A800040DF3CF2BF0F4CF2CF0800E2B242D6EBC
:1047B8007B0E2C202E6E050E016E2F502FEC28F04C
:1047C8002F6E000E316E000E306E2FC011F0126A7F
:1047D80030C013F031C014F02DC0F6FF2EC0F7FF23
:1047E8000800F550156E166A28C017F0186AE9EC2B
:1047F8001AF02D4A2E2A304A312A31BEE6D73150D6
:1048080005E1040E305CD8B01200DFD71200000EAC
:10481800096E000E086E30D0400E0824D96E020EC4
:104828000920DA6EDF50056E066A0150051822E18C
:1048380002500618D8A41ED0000E0824D96E020E05
:104848000920DA6EDF507F0B056E066A03500518E3
:1048580011E104500618D8A40DD0000E0824D96E12
:10486800020E0920DA6E0201DFAE02D0010E12003C
:10487800000E1200084A092A00018B51056E066ACB
:104888000550085C0950800A076E0650800A0758D0
:10489800D8A0C2D7020E1200000E146E12AE06D0B7
:1048A800116C121ED8B0122A010E146E10AE06D06A
:1048B8000F6C101ED8B0102A010E141A000E166EB6
:1048C800000E156E11501210D8B41CD0010E136EC4
:1048D80004D0D89011361236132A12AEFAD7D890CF
:1048E8001536163611500F5C12501058D8A005D046
:1048F80011500F5E1250105A1580D8901232113292
:10490800132EEDD71450D8B404D0156C161ED8B099
:10491800162A15C00FF016C010F01200B00EF66E71
:104928004D0EF76E000EF86E01EE79F010EE5AF0AB
:104938000900F5CFEEFFE550E150FAE17A0EF66E88
:10494800510EF76E000EF86E0900F5CFBBF00900A6
:10495800F5CFBCF003EE47F012EE80F0EE6AE550BA
:10496800E150FCE1E250FAE102EE00F0D00EEE6A0E
:10497800E806FDE101EE00F0790EEE6AE806FDE1D9
:1049880000EE60F02E0EEE6AE806FDE15D6A5E90CC
:104998005E92000EF86E00011DEF0BF0000E1F6E08
:1049A800000E1E6E2BD0400E1E24D96E020E1F2044
:1049B800DA6EDF501B6E1C6A17501B181DE1185069
:1049C8001C18D8A419D0000E1E24D96E020E1F2060
:1049D800DA6EDF507F0B1B6E1C6A19501B180CE136
:1049E8001A501C18D8A408D0000E1E24D96E020E26
:1049F8001F20DA6E000EDB8E1E4A1F2A00018B5123
:104A08001B6E1C6A1B501E5C1F50800A1D6E1C50BA
:104A1800800A1D58D8B01200C6D71F6EE00E1E249B
:104A2800176E186AFF0E1822000E1A6E050E196E00
:104A38007FEC28F017C022F018C023F01D50050D98
:104A4800F3CF1DF0000E256E000E246EE10E222419
:104A5800F66E730E2320F76E0800F550206E216A5B
:104A68001DC006F020C007F01F50AAEC26F01D2A32
:104A7800224A232A244A252A25BEE8D7255005E1BB
:104A8800050E245CD8B01200E1D71200000E1C6E8F
:104A980018AE06D0176C181ED8B0182A010E1C6E56
:104AA8001AAE04D0196C1A1ED8B01A2A19501A1046
:104AB800D8B418D0010E1B6E04D0D89019361A3607
:104AC8001B2A1AAEFAD71950175C1A501858D8A0D2
:104AD80004D01950175E1A50185AD8901A32193241
:104AE8001B2EF1D71C50D8B404D0176C181ED8B0A0
:104AF800182A17C017F018C018F01200126E12C04A
:104B080001F0026A11C003F0046A92EC1FF0070E6C
:104B180011600BD012C001F0026A010E1124036E5D
:104B2800046A000E042292EC1FF0122A090E126485
:104B380002D0000E126E12C001F0026A11C003F01A
:104B4800046A92EC1FF0070E1160120012C001F007
:104B5800026A010E1124036E046A000E042292EC0C
:104B68001FF01200296E000E2B6E000E2A6E11D057
:104B780026502A241D6E27C0F6FF28C0F7FF08001C
:104B8800F5CF1EF0295011EC25F0274A282A2A4A89
:104B98002B2A27C0F6FF28C0F7FF0800F5500A0A9D
:104BA800D8B4120027C0F6FF28C0F7FF0800F55058
:104BB8000009D8B4120027C0F6FF28C0F7FF080084
:104BC800F5500D0AD8B41200D3D74D6E0E0E4D18FD
:104BD800D8A417D0020E0001BC27050EBC6502D070
:104BE800060EBC6F150E266EBCC027F0286A020E92
:104BF800EFEC20F0000E00016D6F000E6C6F000EE0
:104C0800876F0F0E4D18D8A41200060E0001BC6F56
:104C1800150E266EBCC027F0286A020EEFEC20F0B5
:104C2800000E00016D6F000E6C6F000E876F120092
:104C3800036E0350020D100EF324F66E780EF42066
:104C4800F76E0900F5CF04F00A00F5CF05F0ED0E78
:104C58000424F66E770E0520F76E0800F550010162
:104C68004A6F4B6B04C048F105C049F104C001F01C
:104C780005C002F0D89001360236D89001360236C7
:104C880001C060F002C061F003C04CF14D6B12002E
:104C9800126E12C013F0146A1CD00DC015F0166AFB
:104CA80009D015C006F0000E076E1350AAEC26F0C6
:104CB800154A162A0E500F6E106A15500F5C1050C8
:104CC800800A116E1650800A1158D8B0EAD7134AD4
:104CD800142A0C500F6E106A13500F5C1050800A83
:104CE800116E1450800A1158D8A01200D6D70101AD
:104CF8004C4B4D2BD8904C35F66E4D35F76E100E4B
:104D0800F626780EF7220900F5CF03F00A00F5CF52
:104D180004F0ED0E0324F66E770E0420F76E0800FB
:104D2800F5504A6F4B6B03C048F104C049F103C00A
:104D380001F004C002F0D89001360236D89001364E
:104D4800023601C060F002C061F01200086E400E29
:104D5800066004D0000E0A6E010E03D0000E0A6E23
:104D6800020E096E09C00BF00850A1EC28F006509D
:104D780080EC27F00B50ECEC27F0000E936E0B0440
:104D8800D8B48190020E0B18D8B481928196818490
:104D980000008188000007C083FF000E956E0000A8
:104DA800819881808182120000808080808001004B
:104DB8000000E57FD97FF77FEF7FCC7FBE7FAF7F95
:104DC8000200000000000000800000000000000059
:104DD800FFFF00000000000080000000000000004D
:104DE800FFFF00000000000080000000000000003D
:104DF800FFFF00000000000080000000000000002D
:104E0800FFFF000E096E000E0A6E000E0B6E000EFC
:104E18000C6E01A008D00550092606500A2207503A
:104E28000B2208500C22D89005360636073608366D
:104E3800D8900432033202320132015002100310BA
:104E48000410D8A4E6D709C001F00AC002F00BC0CC
:104E580003F00CC004F012007FC101F080C102F021
:104E680081C103F082C104F06D0E056E4E0E066E10
:104E7800C60E076E410E086E05EC27F001C07FF1E3
:104E880002C080F103C081F104C082F1390E010132
:104E98007F27300E8023000E8123000E8223FF0E11
:104EA80081150D6E7F0E82150E6E1200000E056EB6
:104EB800000E046E10D0400E0424D96E020E052098
:104EC800DA6EDF6A000E0424D96E020E0520DA6E4F
:104ED800DF6A044A052A00018B51016E026A0150FB
:104EE800045C0550800A036E0250800A0358D8A05B
:104EF800E2D7000E8B6F1200056E400E05600CD0D5
:104F0800010E036E05504009B8EC27F0020E036E3F
:104F1800400EB8EC27F01200010E036E7F0EB8ECBD
:104F280027F0020E036E0550C00F4009B8EC27F0B9
:104F38001200280E00018A25D96EDA6A010EDA22DB
:104F480001C0DFFF140E8A25D96EDA6A010EDA2253
:104F580003C0DFFF000E8A25D96EDA6A010EDA2255
:104F680005C0DFFF8A2B1200046E0350ECEC27F01B
:104F7800000E936E0304D8B48190020E0318D8B4BF
:104F880081928196819400008188000004C083FF8B
:104F9800000E956E0000819881808182120001C008
:104FA80066F002C067F003C052F104C053F105C0B7
:104FB80050F106C051F107C04EF108C04FF109C0C9
:104FC80064F00AC065F00BC062F00CC063F0120018
:104FD800026E9568000E936E0204D8B48190020E9A
:104FE8000218D8B4819281868194000081880000DB
:104FF80083CF01F0819801BEF9D7818081821200A8
:1050080025C01DF026C01EF027C01FF028C020F0C4
:105018007DEC23F0296E2904D8B404D00C0E29188D
:10502800D8A402D0010E1200000E1200036E010E69
:10503800ECEC27F0000E936E81908196818400003D
:105048008188000003C083FF000E956E00008198E0
:10505800818081821200026E080E036E000E046EBB
:10506800D89002340434046ED89002360150045C9F
:10507800D8A002D00150045E032EF2D704501200CB
:10508800070E0C6E000E0D6E7F0E0E6E000E4CECB1
:1050980026F0080E266EE50E276E7F0E286E030E8C
:1050A800B6EC25F00000FED7070E0C6E000E0D6E54
:1050B8007F0E0E6E000E4CEC26F0080E266ED90EF2
:1050C800276E7F0E286E030EB6EC25F00000FED783
:1050D800400E00018B25D96EDA6A020EDA2201C071
:1050E800DFFF000E8B25D96EDA6A020EDA2203C0C2
:1050F800DFFF8B2B120017501902F3CF1BF0F4CFF0
:105108001CF017501A02F3501C2618501902F350BD
:105118001C261BC017F01CC018F01200818A010E53
:10512800036E3F0EB8EC27F0020E036E3F0EB8EC8C
:1051380027F0000EAFEC28F01200056E010E036E8A
:105148000550B809B8EC27F0020E036E0550B809EF
:10515800B8EC27F01200056E010E036E0550C00969
:10516800B8EC27F0020E036E0550C009B8EC27F022
:045178001200060615
:106FE00000000000000000000000000000000000A1
:106FF0000000000000000000000000000000000091
:107000000000000080404020100C4A8A2CD820E06C
:107010000000000000000000000000000000000070
:107020000000000000000000000000000000000060
:107030000000000000000000000000000000000050
:107040000000000000000000000000000000000040
:107050000000000000000000000000000000000030
:107060000000000000000000000000000000000020
:107070000000000000000000000000000000000010
:107080000000000003020206087070F1F0787C0333
:107090000000808080C04040404040C08080C040B0
:1070A0004040602020206040C0808080C06020C0C0
:1070B00080000080C0407EC1010107FC000000008C
:1070C00000000000000000000000000000000000C0
:1070D00000000000000000000000000000000000B0
:1070E00000000000000000000000000000000000A0
:1070F0000000000000000000000000007CC402024C
:10710000063CE0FC060301F11F00FC8404040C387B
:10711000EE1B11F00000187878780080C1633E18EB
:10712000F00000003C3C1800C0C0233F3EE080005F
:10713000070C068360300C07FD07030101F161C1F4
:1071400083C67C000000000000000000000000007A
:10715000000000000000000000000000000000002F
:10716000000000000000000000000000000000001F
:1071700000000000000000000000000000037EC0CE
:107180000000030140C000011F3060C7FC00000088
:10719000031E70FF00000000FC1C70C181070CF88A
:1071A0008F0000001E1E0E00000183E63C78CF0019
:1071B0000080FE137CC4040C38233C000087FC00D4
:1071C00000000000000000000000000000000000BF
:1071D00000000000000000000000000000000000AF
:1071E000000000000000000000000000000000009F
:1071F000000000000000000000000000000000038C
:1072000006FC8000008FFF040C183020212F3C88E2
:107210008888880F02C42424E7800000C16223E12B
:1072200081E31262C202020202F3090404F80103BC
:107230000203C070101133E604040C080C070100AF
:10724000000000000000000000000000000000003E
:10725000000000000000000000000000000000002E
:10726000000000000000000000000000000000001E
:10727000000000000000000080808080808080008E
:1072800080F011090909CCC4040C18F87E030139F7
:107290002CA4E780FE01703870071CFC0300E0E1BD
:1072A00003C0F0800FF88000E0FF0000FFC07018FE
:1072B0000C07819C9F000007F80603071C307E0125
:1072C00002FC00FC0206C4CC989070C000000000D4
:1072D00000000000000000000000000000000000AE
:1072E000000000000000000000000000000000009E
:1072F000000000000000060F0830E0801878F8F960
:10730000F1E20418E000010170E0C78F1CF0C080BA
:1073100087444447381008060204040F0806030196
:1073200002030003060603003F4180808F8F8878A8
:107330000C060300011F10180F7080807C1870C0AD
:1073400080FFFE01001E1F1F87C3701F000000008A
:10735000000000000000000000000000000000002D
:10736000000000000000000000000000000000001D
:107370000000000000000000000000073C60C18722
:107380004761180C07030604060300010101000011
:1073900000000000000000000000000000000000ED
:1073A00000000000000000000000000000000000DD
:1073B00000000000000000000000000000000000CD
:1073C00000000102020203010100000000000000B1
:1073D00000000000000000000000000000000000AD
:1073E00000000000000000005F0000000700070030
:1073F000147F147F14242A7F2A1223130864623610
:10740000495522500005030000001C2241000041A4
:10741000221C00082A1C2A0808083E0808005030D0
:107420000000080808080800303000002010080498
:10743000023E5149453E00427F400042615149466B
:107440002141454B311814127F1027454545393CE1
:107450004A49493001710905033649494936064907
:1074600049291E0036360000005636000000081478
:107470002241141414141441221408000201510969
:1074800006324979413E7E1111117E7F49494936C4
:107490003E414141227F4141221C7F494949417F70
:1074A000090901013E414151327F0808087F00412E
:1074B0007F41002040413F017F081422417F40402E
:1074C00040407F0204027F7F0408107F3E4141411B
:1074D0003E7F090909063E4151215E7F091929466F
:1074E000464949493101017F01013F4040403F1F6A
:1074F0002040201F7F2018207F631408146303049A
:10750000780403615149454300007F41410204086A
:10751000102041417F00000402010204404040402D
:1075200040000102040020545454787F48444438F9
:107530003844444420384444487F3854545418084C
:107540007E090102081454543C7F08040478004466
:107550007D40002040443D00007F10284400417FD2
:1075600040007C041804787C0804047838444444BF
:10757000387C14141408081414187C7C08040408BB
:107580004854545420043F4440203C4040207C1C3C
:107590002040201C3C4030403C44281028440C50E3
:1075A00050503C4464544C44000836410000007F75
:1075B0000000004136080008082A1C08081C2A0898
:1075C000080801AA0108003838380000000000004F
:1075D00000000000000000000100000600000000A4
:1075E000001A00000002000000020000001E0080DF
:1075F0000106000E00030002003A003002140007EA
:107600000004000100620050001B000100050001A1
:10761000006C0000001C00010006000000000000DB
:107620000000000100000000000500A000010004AF
:1076300000010001001400A0000500050003000087
:10764000002200A0000A0005000500000034000030
:10765000000F000100070000003900300010000397
:1076600000080000004000F00013000400090001C1
:107670000054000000170001000F000000590040F6
:107680000118000000100005007200A0001800049E
:1076900000120001008100C0001C00000014000462
:1076A00000920000001C000100160000009700403E
:1076B000001D00000017000000A00000001D0002D7
:1076C00000180000000000E00200000000000000C0
:1076D00000000000000000000000000000000000AA
:1076E0000000000000000000000B0C80800B0C80EC
:1076F000800B0C808080808080808080800A8080E9
:1077000080808080800B0C80800B0C80808080804B
:10771000800B0C80800B0C80800B0C80800B0C800D
:10772000800B0C80800B0C808080808080000000AB
:107730000000000000FEFE0000000000000000004D
:10774000000100000000000000E0E0000002020074
:1077500000000000000404000004040000FCFC0021
:107760000000000000000000000000000000000019
:107770000000000000FFFF00000202000001010005
:1077800000000000000100000000000000ECEC0020
:1077900000010100000000000002020000000000E3
:1077A0000000000000FCFC000004040000040400D1
:1077B000000404000000000000000000000600714A
:1077C000001D000700140016013C002000150049B0
:1077D000013C00210016004E013C0022001700531E
:1077E000013C002300170053013C002300200A083D
:1077F000141E1EFF0114FF0205070714030AFF01F0
:107800000001010000000000000000000003000073
:10781000000007000A000C00000000000000020247
:1078200000000505050002030F0710010401000513
:107830000A040406060606082907090002000E0BC2
:107840000C0C0D000100020E0B0C0B0C0D000502C0
:107850000E0C0B0D0F071008000009001113131573
:107860000014131312001113041200140413120055
:10787000162A131500110404120014131815000E13
:107880000B0B0C0017191317000002000E0002006A
:107890001A1B001C1D00090004041812001804041F
:1078A0001200081B1A1A1E1E1A1A1A1E1E1A1B096B
:1078B000081B1A1F1F1F1F1F1F1F1A01200104046E
:1078C0001A1A001C21210002051322192423070083
:1078D00025280013180404000404272600180404B3
:1078E0001800012B0701001D2C2E1C2C1D2F2C1CF9
:1078F0002E2C1D19192D1330040430132D311900AD
:1079000000003233000436343500360424230000EE
:1079100000003737000007040404131804040400AF
:107920001D00071C001D0200020513181300211D75
:107930001C21003B38050505393A023D003838382E
